:020000040800F2
:10000000E8FE01205D02000855340008F5280008CC
:1000100051340008391700088D87000800000000DF
:100020000000000000000000000000009D0100082A
:100030007922000800000000F90100084D6800085E
:1000400077020008770200087702000877020008AC
:10005000770200087702000877020008770200089C
:10006000770200087702000877020008770200088C
:100070007702000877020008C51D00087702000813
:1000800077020008611E0008770200087702000866
:100090007702000877020008770200089D22000816
:1000A000770200087702000877020008A9690008B3
:1000B00077020008796C0008B56E00087702000826
:1000C000770200087702000877020008770200082C
:1000D00077020008317800089D7C00088D800008B8
:1000E000770200087702000877020008770200080C
:1000F00077020008770200087702000877020008FC
:1001000077020008770200087702000877020008EB
:1001100077020008770200087702000877020008DB
:1001200077020008770200087702000877020008CB
:1001300077020008770200087702000877020008BB
:1001400077020008770200087702000877020008AB
:100150007702000877020008FD1E000829830008C6
:10016000770200087702000877020008770200088B
:10017000770200087702000877020008770200087B
:100180007702000877020008DFF80CD000F09EFC30
:1001900000480047B1B90008E8FE01202C4B19685F
:1001A0000868B0E8F04F80F30988BFF36F8F4FF015
:1001B000000080F3118870470000000008480068C4
:1001C000006880F308884FF0000080F3148862B65E
:1001D00061B6BFF34F8FBFF36F8F00DF00BF00BF6B
:1001E00008ED00E0DFF80C00016841F470010160E7
:1001F000704700BF88ED00E0EFF30980BFF36F8F19
:10020000134B1A681EF0100F08BF20ED108A20E96A
:10021000F04F106009B44FF0300080F31188BFF345
:100220004F8FBFF36F8F0CF0A3FD4FF0000080F3F2
:10023000118809BC19680868B0E8F04F1EF0100F6B
:1002400008BFB0EC108A80F30988BFF36F8F704746
:10025000C0000020EFF3058070470000064880478B
:1002600006480047FEE7FEE7FEE7FEE7FEE7FEE79B
:10027000FEE7FEE7FEE7FEE74169000889010008A6
:100280000048704764E4000810B50446FFF7F8FF23
:100290000068005D00F0010010BD40EA01039B070B
:1002A00003D009E008C9121F08C0042AFAD203E0EB
:1002B00011F8013B00F8013B521EF9D27047D2B24F
:1002C00001E000F8012B491EFBD270470022F6E73F
:1002D00010B513460A4604461946FFF7F0FF2046BC
:1002E00010BD421E12F8013F002BFBD111F8013B5B
:1002F00002F8013B002BF9D1704710B5044604E029
:100300000B7800F8013B03B1491C521EF8D220467D
:1003100010BDCAB2401E10F8011F8A4202D0002947
:10032000F9D100207047421C10F8011B0029FBD1B5
:10033000801A704710B5002200E0521C835C8C5C70
:10034000A34201D1002BF8D1D8B2E1B2401A10BDBE
:10035000034611F8012B00F8012B002AF9D11846A9
:10036000704730B505460020034600E05B1C934211
:1003700005D2EC5CC85C201A01D1002CF6D130BD4E
:1003800070B5064609F0ECF9046805460A2200211A
:10039000304600F0D7FA2C6070BD2DE9FE4F804644
:1003A00081EA0300C00F0C46009021F0004123F0C9
:1003B0000045B8EB0200A94105D2404621469046CF
:1003C0001C460B46024623F00040104347D0270D41
:1003D000C7F30A00C3F30A510290401A0190402863
:1003E0006BDAC3F3130040F4801B0098924620B1EF
:1003F0000023D2EB030A63EB0B0B01985946C0F1C3
:100400004002504600F01FFA06460D465046594637
:10041000019A00F037FA10EB08006141002487EAE6
:10042000115284EAE7731A4340D0009A62B3019AEA
:10043000012A4FEA075215DC001B61EB02014FF065
:10044000004202EA0752CDE90042001C41F580114A
:1004500032462B4600F0BDFA03B0BDE8F08F4046AF
:100460002146F9E7001B61EB0201001C41F58013F6
:1004700000185B412018A2F5001747EB030140EA82
:10048000D570B6196D4111E06D084FEA360645EAA0
:10049000C0754FEA0752001B61EB0201001C41F5D9
:1004A000801149084FEA30000019514132462B466D
:1004B00003B0BDE8F04F00F07DBA00980122400083
:1004C0000023D0EB020263EBE073009821464FEA71
:1004D000E074B8EB000061EB0401E9E783F000434E
:1004E0005BE781F0004158E72DE9FE4F81EA030404
:1004F00004F0004421F0004100944FF0000B23F081
:10050000004350EA01045ED052EA03045BD0C3F317
:100510000A54C1F30A552C44A4F2F3340194A0FB0D
:100520000254C1F3130141F48011C3F3130343F4E4
:10053000801301FB024400FB034E840A970A44EA3D
:10054000815447EA8357A4FB076802958D0A05FB8F
:1005500007854FEA932C04FB0C542705029D4FEAB4
:10056000065847EA1637B5EB08056EEB070C870E01
:10057000920E47EA811742EA8312A7FB0201B6EB0B
:100580000B0164EB00042B0D43EA0C335E1844EBC3
:100590001C50DA465146E7FB0201C5F313044FEA4B
:1005A0000B3343EA14534FEA0432019C43EA060337
:1005B000A4F10C040294009CCDE900B400F009FA07
:1005C00003B0BDE8F08F00200146F9E72DE9F04DBA
:1005D00081EA030404F0004B21F0004514464FF07B
:1005E000000A23F0004150EA050220D054EA01023B
:1005F0001DD0C5F30A570246C5F31303C1F3130018
:10060000C1F30A5640F4801543F48013A7EB0608A3
:10061000101BD64608F2FD3873EB050002D308F133
:10062000010801E092185B41B8F1000F03DA0020E5
:100630000146BDE8F08D00204FF480110646844647
:100640000EE0171B73EB050705D3121B63EB0503C5
:1006500006434CEA010C49084FEA300092185B410E
:1006600050EA0107EDD152EA030012D082EA0400F9
:1006700083EA0501084305D0101BAB4106D20122D5
:10068000002306E000224FF0004302E06FF0010279
:1006900053101AEB06004CEB085110EB0A0041EB2B
:1006A0000B01BDE8F04D00F085B90EB5C10F80EA31
:1006B000E0700844CA07002140F233438DE80E0081
:1006C0000A460B4600F085F903B000BD0EB540F2B6
:1006D000334102910021CDE900110A460B4600F09A
:1006E00078F903B000BD70B5C1F30A5201F00045BE
:1006F0000024C1F3130140F2FF3341F480119A4208
:1007000001DA002070BD40F233439A42A2F2334234
:1007100003DC524200F0A6F800E090402C43F1D0F8
:10072000404270BDC1F30A5210B5C1F3130140F24B
:10073000FF3341F480119A4201DA002010BD40F2EB
:1007400033439A42A2F2334203DC524200F08AF869
:1007500010BD904010BD000030B5041E71F10004C2
:1007600004DB4FF00044404264EB0101141E73F1BE
:10077000000405DB1C464FF00043524263EB0403C8
:100780008B4208BF824230BD30B5041E71F10004B7
:1007900004DB4FF00044404264EB0101141E73F18E
:1007A000000405DB1C464FF00043524263EB040398
:1007B000994208BF904230BD30B50B46014600203B
:1007C0002022012409E021FA02F59D4205D303FA13
:1007D00002F5491B04FA02F52844151EA2F1010294
:1007E000F1DC30BD2DE9F05F0546002092469B46C6
:1007F00088460646814640241BE028464146474637
:10080000224600F02FF853465A46C01A914110D3A1
:1008100011461846224600F016F82D1A67EB01081B
:100820004F4622460120002100F00DF817EB000989
:100830004E41201EA4F10104DFDC484631462A4621
:100840004346BDE8F09F202A04DB203A00FA02F17B
:10085000002070479140C2F1200320FA03F31943AE
:1008600090407047202A04DB203A21FA02F0002150
:10087000704721FA02F3D040C2F1200291400843B0
:1008800019467047202A06DBCB17203A41FA02F0BE
:1008900043EAE07306E041FA02F3D040C2F12002DD
:1008A00091400843194670470FB4002300B589B042
:1008B0000CA900910B996FF00042CB601E4B069380
:1008C0001E4B07930423CDE901321D4A08920246CC
:1008D0006B46002000F0A0F909B05DF814FB70B57C
:1008E00086B006464FF0FF300091CDE901010020AF
:1008F00015460C4604903246694604A8FFF7D4FF1B
:1009000002460498211825B108B1084600E02046A7
:100910002860049800280DD0002A02DD0098884243
:1009200008D0081B0094CDE901043246694604A8AA
:10093000FFF7BAFF06B070BD510E00086F0E000839
:10094000890200082DE9F04791460F46804604468B
:10095000002614F8015B2DB1FFF792FC0068405DA2
:10096000C007F6D12B2D02D02D2D18D0641E4A467B
:100970003946204600F08CFA27B13968A14201D1EE
:10098000C7F8008071054FF002040BD540420028E3
:1009900003DD08F0E5FE0460A007BDE8F08746F43B
:1009A0008066E4E70028F8DA08F0DAFE04606FF009
:1009B0000040F2E710B5141E73F1000408DA401C81
:1009C00041F1000192185B411A4301D120F001006E
:1009D00010BD2DE9F04D92469B4611B1B1FA81F25E
:1009E00002E0B0FA80F220329046FFF72CFF044676
:1009F0000F4640EA0A0041EA0B0153465A460843B3
:100A000013D0114653EA010019D0C8F140025046F4
:100A1000FFF728FF05460E46504659464246FFF767
:100A200012FF084305D0012004E020463946BDE806
:100A3000F08D0020054346EAE0762C4337430A98C0
:100A40006305E40AA0EB08000022FD0A44EA4754CB
:100A50000A3002D500200146E9E701051019694175
:100A6000DDE9084500196941BDE8F04DA2E770B520
:100A700021F0004303430CD0C1F30A550024D5EB09
:100A8000040564EB0403D617AD1AB34102DB002062
:100A9000014670BD201841EB025170BDC1F30A52EE
:100AA000C1F3130140F2FF3341F480119A4202DA9C
:100AB00000200146704740F233439A42A2F233428B
:100AC00002DC5242FFF7CEBEFFF7BDBE064C074D1B
:100AD00006E0E06840F0010394E80700984710340E
:100AE000AC42F6D3FFF754FB70E4000890E4000832
:100AF0002DE9FF4F087883B09946FF2805D0491C9F
:100B00002D2804D00024002008E000200BE0012460
:100B1000F9E700EB800003EB4000491C0B78FF2B4A
:100B2000F7D104B1404200230293147819461D46C0
:100B30002D2C01D02B2C04D1521C2D2C13D0002491
:100B40000294AA461478FF2C0FD00A25A3FB05783F
:100B500001FB05814FF0000C03FB0C11521CE31943
:100B60004AEB0101EEE70124EAE7814453EA010080
:100B700002D019F5C87F06DA03980021C0E90011F8
:100B800007B0BDE8F08F0025AE4E2F46DFF8B882E3
:100B9000184600F02BFACDE90001B9F1000002DAA5
:100BA000C9F1000400E004460023A74A1AEB030B36
:100BB00042EB045A12E0E00707D02A463346384693
:100BC0004146FFF791FC074688462A4633461046C1
:100BD0001946FFF789FC05460E466410002CEAD141
:100BE000DDE90001B9F1000F5A46534606DAFFF776
:100BF000EDFC3A464346FFF7E9FC05E0FFF774FCDD
:100C00003A464346FFF770FC029A0AB181F0004170
:100C1000039AC2E90001B3E72DE9FF4F1F468DB0EB
:100C2000D7E901464FF0FF382E2045464FF0000926
:100C30000B90B9696D1C0E988847396A82468847BF
:100C40000028F6D1BAF1FF3F0AD024F4D064002E78
:100C500011DDBAF12B0F08D0BAF12D0F0BD102E044
:100C6000404611B08DE744F48064B9696D1C0E985C
:100C700088478246761E6946600501D52D2000E032
:100C80002B208DF8000001F1010B0DF1200809E087
:100C9000B9696D1C0E98884782460F9844F4007419
:100CA000761E0560002E02DDBAF1300FF0D00B99F0
:100CB0008A453ED144F0800406E00F99681CA9F1F2
:100CC000010944F400740860B9696D1C761E0E9821
:100CD000884782463028F0D02BE00B998A4505D111
:100CE000200603D444F08004761E18E050460AF033
:100CF0002DF808B30DF11301761E44F400748B45F2
:100D000008D2AAF130000BF8010B200607D5A9F193
:100D1000010003E0200602D409F101008146A0058C
:100D200002D50F99681C0860B9696D1C0E98884738
:100D30008246002ED1DC53E0002E51DDBAF1650F62
:100D400002D0BAF1450F4BD1A00549D5B9696D1C48
:100D500024F44074761E0E9888478246002E0CDDDF
:100D60002B2804D0BAF12D0F07D144F48074B9694F
:100D70006D1C0E9888478246761EE00501D52D2110
:100D800000E02B2108F8011BCDF82C8021E00DF1AB
:100D90002901761E44F4007488450CD2AAF1300073
:100DA00010F0FF0088F8000002D10B99884509D99E
:100DB00008F1010806E0E00501D5244801E042F20F
:100DC0000F708146B9696D1C0E98884782460F984E
:100DD0000560002E04DD504609F0B8FF0028D6D18A
:100DE000F9690E988847FF208BF8000088F800000A
:100DF0000020069007904B466A4608A906A8FFF710
:100E000077FEA00502D46FF001002AE714F0240F4A
:100E10000AD0E00714D1DDE906123868031D3B60F3
:100E20000068C0E900120BE0DDE9060100F0EAF815
:100E30000146E00704D13868021D3A60006801608D
:100E400028460EE7000014400000F03FF1D8FFFFF5
:100E5000426842B1016811F8013B23B1521EC0E95A
:100E60000012184670470121C160881E7047426811
:100E70005AB1C368016843B983688B4205D0491EE3
:100E8000521CC0E90012002070474FF0FF3070473D
:100E90002DE9F05F82460078002715468B460AF15F
:100EA0000104B946302801D09DB113E014F8010BBC
:100EB0000127782803D0582801D045B10AE00DB1A8
:100EC000102D07D10027102514F8010B02E008258A
:100ED00000E00A250026B0460EE005FB080005FBF1
:100EE00006F1012701EB10461FFA80F8B6F5803FA6
:100EF00000D3B94614F8010B294600F069F8002820
:100F0000EBDABBF1000F05D00FB1641E00E05446D0
:100F1000CBF80040B9F1000F06D008F021FC022107
:100F20000160C81EBDE8F09F48EA0640FAE72DE9D7
:100F3000F04D00231A461B1A8A4103DB00200146AC
:100F4000BDE8F08DC1F30A52C1F3130141F48015DD
:100F50004FF0000BD10702D100186D41521E00273F
:100F6000044640F2FF11384601EB620A3E468046D5
:100F7000024600204FF48011FFF774FCC219714142
:100F8000BB1846EB0100B4EB030C75EB000C04D36B
:100F9000E41A65EB000517460E46241908F1010016
:100FA0006D4180463428E3DDF91946EB0600091B44
:100FB000A84103D24FF0FF32134601E0002213464E
:100FC0001BEB070046EB0A51BDE8F04DFFF7F2BC02
:100FD0003A2800D2303820F02002412A01D3A2F171
:100FE0003700884201D34FF0FF3070470EB540F212
:100FF000334202920022CDE900221346FFF7E9FCBA
:1010000003B000BD01F0004330B421F0004150EACC
:10101000010206D00A0DA2F56072C1F31301002A85
:1010200002DC30BC00207047440F44EAC104C10018
:10103000E01830BC00EBC250AFF300800029A8BF1D
:101040007047401C490008BF20F00100704710B4F1
:10105000B0FA80FC00FA0CF050EA010404BF10BCA6
:10106000704749B1CCF1200421FA04F411FA0CF1D3
:1010700018BF012121430843A3EB0C01CB1D4FEA0C
:1010800000614FEA102042BF002010BC704700EB07
:10109000C35010440029A4BF10BC7047401C490035
:1010A00008BF20F0010010BC704770B58C1810F814
:1010B000015B15F0070301D110F8013B2A1106D19D
:1010C00010F8012B03E010F8016B01F8016B5B1EB7
:1010D000F9D12B0705D40023521E0DD401F8013B92
:1010E000FAE710F8013BCB1A921C03E013F8015BFE
:1010F00001F8015B521EF9D5A142D8D3002070BD82
:1011000021B1826842F00102826003E0826822F02D
:1011100001028260704700000021084A1168084AF5
:101120001140D0E900231A4383681A43C3681A4365
:101130001143044AC2F8041370470000042301401D
:10114000E030FCFF0020014010B500F0B1F800F0E5
:1011500009F800F081F801210148FFF7D1FF10BD27
:10116000002001401CB500BF1020009003208DF826
:10117000040000208DF8070069461A4801F076FA4D
:101180000420009003208DF8040000208DF8070053
:101190006946144801F06AFA0820009003208DF88F
:1011A000040000208DF8070069460E4801F05EFA41
:1011B0000220009003208DF8040000208DF8070025
:1011C0006946084801F052FA2020009003208DF86B
:1011D000040000208DF807006946024801F046FA35
:1011E00000BF1CBD000002400146C86C80B27047C1
:1011F0000246002013680B400BB1012000E00020E4
:101200007047000030B50246002000235068104CA3
:1012100020400D790C6844EA052420435060906812
:101220000C4C2040D1E903542C438D682C434D795C
:1012300044EA450420439060D06A20F470000C7D9D
:10124000641EE4B2234340EA0350D06230BD000084
:10125000FFFEFFFCFDF7FFC000B58BB001210802C7
:1012600002F0FEFD00214FF4807002F0F9FD002035
:101270000190049003904FF44030029001A8FFF7D2
:101280004BFF05A800F083F8002005908DF81800AA
:101290008DF819000890099001208DF8280005A903
:1012A0000248FFF7AFFF0BB000BD00000020014077
:1012B00010B500BF0121080202F0C2FD00BF00BF4F
:1012C0000121084602F08CFD00BF10BDF0B50446B8
:1012D0000D4600200021092D11DDE068A5F10A0668
:1012E00006EB4607072606FA07F18843A5F10A062A
:1012F00006EB460603FA06F10843E0600CE02069BD
:1013000005EB4507072606FA07F1884305EB450676
:1013100003FA06F108432061072A0FDA606B561EB4
:1013200006EB86071F2606FA07F18843561E06EBD2
:10133000860605FA06F10843606322E00D2A0FDAFB
:10134000206BD61F06EB86071F2606FA07F1884397
:10135000D61F06EB860605FA06F10843206310E067
:10136000E06AA2F10D0606EB86071F2606FA07F1D2
:101370008843A2F10D0606EB860605FA06F108433E
:10138000E062F0BD816841F08041816070470021DA
:101390000160017141718160C160016101210175CC
:1013A0007047000070B505460E460424284600F03C
:1013B0001FF80446042C05DA034850F8242031466F
:1013C0002846904770BD00007CE2000870B50446D6
:1013D0000025012609E0601904F020FC3146761C46
:1013E0002622204601F06DFA0546FF2DF3D170BD8F
:1013F00070B588B005462E461C220B4901A8FEF7A1
:101400004CFF00240CE0C4EBC40101AA881802229E
:101410003146FEF7A6FF10B9E0B208B070BD641CFB
:10142000042CF0DB0420F8E7D4E2000870B52DEDC1
:10143000048BB4B004460025002033909FED930B3D
:10144000B0EE408AF0EE608AC82101A8FEF73EFFA8
:1014500050220121204601F034FA0546601933A9D3
:1014600005F02CF9B0EE408AF0EE608A0A2033993C
:1014700005F01AF90646FFF718F941EC190B53EC81
:10148000192B51EC180BFFF7A1F841EC180B814810
:1014900080ED048B0121204601F007FA0546601912
:1014A00033A905F00BF9B0EE408AF0EE608A0A200D
:1014B000339905F0F9F80646FFF7F7F841EC190BF8
:1014C00053EC192B51EC180BFFF780F841EC180B7B
:1014D000611901A8FEF73CFF01A8FFF777FF022181
:1014E000204601F0E2F90546601933A905F0E6F857
:1014F000B0EE408AF0EE608A0A20339905F0D4F805
:101500000646FFF7D2F841EC190B53EC192B51ECBE
:10151000180BFFF75BF841EC180B5E4880ED008B71
:101520000321204601F0C1F90546601933A905F0F1
:10153000C5F8B0EE408AF0EE608A0A20339905F0D3
:10154000B3F80646FFF7B1F841EC190B53EC192B31
:1015500051EC180BFFF73AF841EC180B4D4880EDB1
:10156000088B0421204601F0A0F90546601933A933
:1015700005F0A4F8B0EE408AF0EE608A0A203399B4
:1015800005F092F80646FFF790F841EC190B53EC82
:10159000192B51EC180BFFF719F841EC180B51EC13
:1015A000180BFFF7A0F83B4988620521204601F09F
:1015B0007CF90546601933A905F080F8B0EE408A41
:1015C000F0EE608A0A20339905F06EF80646FFF7C0
:1015D0006CF841EC190B53EC192B51EC180BFEF77E
:1015E000F5FF41EC180B51EC180BFFF77CF829497B
:1015F000C8620621204601F058F90546601933A952
:1016000005F05CF8B0EE408AF0EE608A0A2033996B
:1016100005F04AF80646FFF748F841EC190B53EC81
:10162000192B51EC180BFEF7D1FF41EC180B51ECC4
:10163000180BFFF758F8174908630721204601F0F7
:1016400034F90546601933A905F038F8B0EE408A40
:10165000F0EE608A0A20339905F026F80646FFF777
:1016600024F841EC190B53EC192B51EC180BFEF735
:10167000ADFF41EC180B51EC180BFFF734F805499E
:10168000486334B0BDEC048B70BD00000000000066
:1016900000000000E877002010B5012204210F4867
:1016A00005F00AFD012204210C4805F0F7FC00BFFB
:1016B000062002F087FC0028FAD000220421074807
:1016C00005F0ECFC00220421044805F0F5FC0020A4
:1016D0000349086001200349086010BD0000014073
:1016E000180200201C02002010B5012204210F481E
:1016F00005F0D4FC012204210C4805F0DDFC00BFFC
:10170000052002F05FFC0028FAD0002204210748DF
:1017100005F0C4FC00220421044805F0CDFC0120A2
:101720000349086000200349086010BD0000014023
:10173000180200201C02002000BFFEE72DE9F04146
:101740002DED028B84B004460D469FED200BB0EECC
:10175000408AF0EE608A4FF00008002600200190D9
:10176000029003902046FEF7DEFD0646701E205CC8
:10177000202811D1B01E205C3E280DD10A21204620
:10178000FEF7C7FD07460822791C01A8FEF7B5FD44
:1017900000208DF80C0009E02846FEF797FF41EC89
:1017A000100B04B0BDEC028BBDE8F08101A809F07C
:1017B00033FF8046404609F093FEB0EE408AF0EEDB
:1017C000608AB0EE480AF0EE680AEAE7000000001E
:1017D0000000000010B5ADF6A87D04469FED120A8A
:1017E0000DF5406080EDE90A4FF47A6101A8FEF73B
:1017F0006DFD94ED040AF0EE401A94ED030AB0EE8C
:10180000401A94ED020AF0EE400A9FED080A01A981
:101810000DF6A47000F00CF80DF6A471216001A97A
:1018200061600DF6A87D10BD000000000000FA44C4
:1018300070B52DED088B05460E46B0EE408AB0EE31
:10184000609AF0EE418AF0EE619A00249FED280A3A
:10185000B0EE40AA9FED260AF0EE40AA9FED240AC2
:10186000B0EE40BA39EE680AF0EE40BA32E0B0EEBF
:10187000000AC8EE000A00EE104AB8EEC00A30EEC8
:10188000600A20EE290AB0EE001AC8EE010A80EEC6
:10189000201AB0EE41BAB1EE4B0A07F081FFF7EE25
:1018A000000A30EE200AF7EE000A80EE801AF0EE11
:1018B00041AAB0EE680A0BEEAA0AB0EE40AA9FED6C
:1018C0000D0AC0EE0A0ABCEEE00A10EE100A26F875
:1018D0001400641C00EE104AB8EEC00AB4EEC80A48
:1018E000F1EE10FAC3D385ED00AABDEC088B70BDF4
:1018F000000000000024F44910B5044600BF002099
:101900002349486008612348006820F020002149ED
:10191000086021480AF084FE4FF4FA700BF06AF870
:101920001D4819380AF07CFE4FF4FA700BF062F88B
:10193000194819380AF074FE4FF4FA700BF05AF88F
:10194000154819380AF06CFE4FF4FA700BF052F893
:10195000114819380AF064FE4FF4FA700BF04AF897
:1019600004F03AFF00BF0A4800690028FBD04FF49A
:10197000FA600BF03FF806494968A1F530509C38F1
:10198000002801DB014600E041420529B7DA10BD1D
:1019900030B60120003C014001F5FFFF10B588B0D2
:1019A000202212496846FEF778FC86211048FEF78F
:1019B0008DFC6846FEF7B7FC84B22146684606F007
:1019C0000DF90CE00A488088401C094988800A20EB
:1019D0000BF010F806488088C82800DB03E00448B4
:1019E00040880028EED000BF08B010BDACDF000872
:1019F0005C7700202DE9F04105460E462C462089F3
:101A000020B14FF400711B48FEF760FC2289194891
:101A10002168FEF742FC2089618908441549891E26
:101A20000880608930B162892789124BF818616893
:101A3000FEF733FC0F48801E807841280DD10D48F9
:101A4000801E0088401E0B49085C422805D10021F9
:101A5000094800680BF004FD09E0208962898118BB
:101A60000448FEF733FC00200249891E0880BDE8C7
:101A7000F081000012B40120D40100200C4800685D
:101A800048B19FED0C0B0D4880ED040B0848002178
:101A90000268084690470AE04FF0FF3108480068A6
:101AA0000BF014FE07480188801CFFF77BFCF3E76E
:101AB000940100200000000000405A40E877002018
:101AC000D401002010B4012010B52DED0C8BF2B024
:101AD000B0EE40CAF0EE60CAB0EE418AF0EE618A24
:101AE000B0EE429AF0EE629AB0EE43AAF0EE63AA2C
:101AF000B0EE44BAF0EE64BAB0EE45DAF0EE65DA74
:101B00002022A64950A8FEF7C8FB2022A349203175
:101B100048A8FEF7C2FB2022A049403140A8FEF7AA
:101B2000BCFB20229D49603138A8FEF7B6FB20227D
:101B30009A49803130A8FEF7B0FB20229749A031A6
:101B400028A8FEF7AAFB20229449C03120A8FEF75E
:101B5000A4FB20229149E03118A8FEF79EFB202229
:101B60008F4908A8FEF799FB20228D49203168464D
:101B7000FEF793FB202110A8FEF7A8FB53EC1D2BCA
:101B800088A110A807F0ACFD10A918A8FEF7A9FBC2
:101B9000342158A8FEF79AFB342165A8FEF796FB7E
:101BA00053EC182B814890ED000B51EC100BFEF715
:101BB000D3FD13D153EC192B7D4890ED000B51EC64
:101BC000100BFEF7C9FD09D153EC1A2B794890EDA3
:101BD000000B51EC100BFEF7BFFD7DD048A965A8A6
:101BE000FEF77FFB53EC182B73A158A807F078FD84
:101BF00058A965A8FEF775FB65A8FEF794FB84B2AB
:101C0000214665A805F0EAFF342158A8FEF75EFBDF
:101C1000342165A8FEF75AFB40A965A8FEF761FBD1
:101C200053EC192B64A158A807F05AFD58A965A8D0
:101C3000FEF757FB65A8FEF776FB84B2214665A840
:101C400005F0CCFF342158A8FEF740FB342165A8ED
:101C5000FEF73CFB38A965A8FEF743FB53EC1A2BB3
:101C600055A158A807F03CFD58A965A8FEF739FB17
:101C700065A8FEF758FB84B2214665A805F0AEFFC3
:101C8000342158A8FEF722FB342165A8FEF71EFB7D
:101C900030A8FEF748FB84B2214630A805F09EFF2D
:101CA00028A8FEF740FB84B2214628A805F096FF3D
:101CB00018A8FEF738FB84B2214618A805F08EFF5D
:101CC0006846FEF730FB84B22146684605F086FF81
:101CD000364880ED008B00E005E0354880ED009B44
:101CE000344880ED00AB53EC1B2B354890ED000BD6
:101CF00051EC100BFEF730FD24D020A965A8FEF7AB
:101D0000F0FA53EC1B2B2CA158A807F0E9FC58A9BA
:101D100065A8FEF7E6FA65A8FEF705FB84B2214642
:101D200065A805F05BFF342165A8FEF7CFFA684689
:101D3000FEF7F9FA84B22146684605F04FFF2048C5
:101D400080ED00BB50A965A8FEF7CBFA53EC1C2B25
:101D500019A158A807F0C4FC58A965A8FEF7C1FA54
:101D600065A8FEF7E0FA84B2214665A805F036FFC3
:101D7000342158A8FEF7AAFA342165A8FEF7A6FA7E
:101D800008A8FEF7D0FA84B2214608A805F026FF7D
:101D9000002072B0BDEC0C8B10BD0000ECDF000821
:101DA000ECE00008252E3466000000004801002009
:101DB0005001002058010020252E34660D0000003F
:101DC0006001002070B54FF0C051234800F0E6F9E3
:101DD000002840D04FF0C0511F4800F0DDF800212E
:101DE0001D4800F0F3F81D480088002833D0002477
:101DF00000251A48008880280DDD80241748408877
:101E00008030164948800846018800888038084498
:101E10001249088005E01148047800200F494880E5
:101E200008800E48456805F500700C494860084672
:101E300040680949583948662146074800F01AFAAF
:101E40000121054800F0C2F800BF034800F08DF9F9
:101E50000028FAD100BF70BD586002404800002041
:101E600070B52349234800F099F900283FD0204954
:101E7000204800F091F800211E4800F0A7F81E4805
:101E80000088002833D0002400251B4800888028C3
:101E90000DDD802418484088803017494880084666
:101EA00001880088803808441349088005E01248FA
:101EB000047800201049488008800F48456805F5DF
:101EC00000700D494860084640680A490C310860B6
:101ED0002146084800F0CEF90121064800F076F8C6
:101EE00000BF044800F041F90028FAD100BF70BDDE
:101EF00000002020A06002403800002070B54FF0A4
:101F00002051234800F04AF9002840D04FF02051DA
:101F10001F4800F041F800211D4800F057F81D4807
:101F20000088002833D0002400251A480088FE28A5
:101F30000DDDFE2417484088FE30164948800846CB
:101F400001880088FE3808441249088005E01148DD
:101F5000047800200F49488008800E48456805F540
:101F60007E700C4948600846406809490C31086099
:101F70002146074800F07EF90121054800F026F8C7
:101F800000BF034800F0F1F80028FAD100BF70BD8F
:101F9000B8640240300000200246094B9A4201D248
:101FA000084801E00648103801F000531BB1064B09
:101FB0000B40C36002E0044B0B408360704700009D
:101FC00010640240006002407D0F7D0F21B1026865
:101FD00042F00102026003E0026822F001020260A6
:101FE00070470000016821F00101016000210160DB
:101FF00041608160C1600161212141614A4988429B
:1020000004D13D21484A103A91608CE0464918318C
:10201000884205D14FF47461434A103A916082E0DE
:1020200041493031884205D14FF474113E4A103A8B
:10203000916078E03C494831884205D14FF07461A5
:10204000394A103A91606EE037496031884204D1D4
:102050003649354A103AD16065E0334978318842D3
:1020600004D13349304A103AD1605CE02E499031B6
:10207000884204D12F492C4A103AD16053E02A49B2
:10208000A831884205D14FF03D51274A103AD1601E
:1020900049E02949884204D13D21274A083A116084
:1020A00041E025491831884205D14FF47461224A34
:1020B000083A116037E020493031884205D14FF4A9
:1020C00074111D4A083A11602DE01B4948318842BD
:1020D00005D14FF07461184A083A116023E016499F
:1020E0006031884204D11149134A121F11601AE06D
:1020F00011497831884204D10D490F4A121F1160ED
:1021000011E00D499031884204D10A490A4A121F50
:10211000116008E00849A831884204D14FF03D51D0
:10212000054A121F11607047106002403D000020F8
:10213000400F002000003D201064024021B10268E1
:1021400042F48022026003E0026822F480220260EE
:10215000704722B1036843F40023036003E003687F
:1021600023F40023036001617047014600200A68E0
:1021700002F001020AB1012000E000207047014690
:10218000486880B27047014600200A6802F40022C5
:102190000AB1012000E000207047000030B503467E
:1021A0000A46002000240B4DAB4201D20A4901E04F
:1021B0000849103902F000550DB14C6800E00C6878
:1021C000064D2C4004EA02050DB1012000E000207C
:1021D00030BD000010640240006002407D0F7D0FA2
:1021E00010B501F080034BB122B1436943F0800385
:1021F000436103E0436923F08003436180290BD0EE
:102200002AB1036801F01E042343036004E003685D
:1022100001F01E04A343036010BD000010B50022AE
:102220000268134B1A40CC680B6823434C69234364
:102230008C692343CC6923430C6A23434C6A2343B0
:102240008C6A23434C6B23438C6B23431A430260F9
:10225000426922F00702D1E90B3423431A43426159
:102260000B6943604B6883608B68C36010BD0000DE
:102270003F801CF041607047704710B50E2101206F
:1022800003F016FF10BD10B500F05CF900F0ACF8DB
:1022900000F028F900F066F910BD000010B520200C
:1022A00000F0C0F800286DD03748806870B1012078
:1022B0003649C871364800F0D9F9364800683249C5
:1022C000C861012008700020886058E0314800682B
:1022D0003149086000200AE02E4909682E4A126838
:1022E000891A294A9269914200D303E0401C2B4984
:1022F0008842F1DB00BF0021294804F0F1FE0021F3
:102300002448243804F0ECFE0221254804F0E5FEC0
:1023100002201E49C8711E4800F0A8F901201A4980
:1023200088600020C8611F48006820F020001D4917
:102330000860154880690C2815D113484068154974
:102340000968401A104948600846406808619FEDD6
:10235000160A164880ED020A9FED150A80ED030A61
:10236000FFF738FA0BE0084840680A490968084452
:102370000549486000210F4800680BF071F82020E3
:1023800000F01AF810BD000030B60120AC000020AB
:102390000008024024080040BC000020F1FF0E00AD
:1023A00000040040003C014000803B455C000020F0
:1023B0000080BB4410020020014908607047000003
:1023C000143C0140002006490860091D0860091DF1
:1023D0000860091D0860034801491431086070470E
:1023E000003C0140FFFF7F001CB500BF2020009093
:1023F00000208DF8040002208DF8070001208DF8E0
:1024000005006946024800F031F900BF1CBD00001C
:1024100000080240024909680143014A11607047FF
:10242000103C014001460020034A12680A400AB1EC
:10243000012000E000207047143C014010B5044624
:102440000021024800680BF00BF810BD10020020BC
:10245000002123498279002A3AD00A46126803688B
:102460009A430B461A600A1D126803689A430B1DB3
:102470001A60027911440A6803681A430A60184A0C
:102480000832126803689A43154B08331A601A1D04
:10249000126803689A43124B0C331A604279102A6F
:1024A0000ED11A1F126803681A430D4B08331A60C5
:1024B0001A1D126803681A43094B0C331A600DE0A9
:1024C0000749427911440A6803681A430A6005E023
:1024D000027911440A6803689A430A607047000051
:1024E000003C014010B5FFF76DFF0521022003F00D
:1024F00075FB2020104908601020487100200871E9
:10250000012088710846FFF7A3FF17200B490870C8
:1025100004204870002088700120C870084601F02F
:102520005DFA0748006820F0200005490860202077
:10253000FFF770FF10BD0000A0000020A8000020E1
:10254000003C014010B500BF0121042001F048FC0F
:102550000121880301F074FC0121042001F040FCFA
:1025600000BF10BD0020014948607047B400002042
:1025700010B50A480A4908600A480B494860032216
:10258000002101200AF06AFD0849086003220021A9
:1025900001200AF063FD0649086010BDA16E000825
:1025A000940000203D240008B40000200C0200200C
:1025B0001002002010B5044647F23050844203D088
:1025C00042F2D00084420CD149F6404004F060FC55
:1025D00001210E4804F084FD01210D4804F080FD26
:1025E00013E0204604F054FC0121094804F078FD72
:1025F0000121074804F071FD01221146044804F04E
:102600009EFD0121014804F06BFD10BD0004004057
:10261000000800409FED0F0B104A82ED000B9FED6C
:102620000D0B82ED020B9FED0B0B82ED040B82F87C
:102630002C0091629FED070B82ED060B9FED050BC1
:1026400082ED080B0222054B83F82E2083F82D2003
:10265000704700000000000000000000E0B301200F
:1026600010B500F0F8F800F049F810BDF0B50A46D2
:1026700000210023002400BF3DE0012505FA01F3FD
:10268000156805EA03049C4234D105684F0003260F
:10269000BE40B543056015794E00B5400668354328
:1026A00005601579012D02D01579022D16D18568A6
:1026B0004F000326BE40B543856055794E00B540B6
:1026C000866835438560456801268E40B543456080
:1026D000456896798E40B6B235434560C5684F006F
:1026E0000326BE40B543C560D5794E00B540C668E7
:1026F0003543C560491C1029BFD3F0BD1CB53E2031
:10270000009000208DF804008DF8070069463B48D2
:10271000FFF7ACFF0220009001208DF8040000209C
:102720008DF806008DF8070002208DF80500694637
:102730003348FFF79BFF4FF48070009001208DF825
:10274000040000208DF8060002208DF807008DF8A7
:10275000050069462B48FFF789FF40F6027000909C
:1027600001208DF8040000208DF806008DF8070088
:1027700002208DF8050069462348FFF777FF41F2F4
:102780000100009000208DF804008DF807006946D4
:102790001D48FFF76BFF40F25350009001208DF869
:1027A000040000208DF806008DF8070002208DF847
:1027B000050069461548FFF759FF4FF480700090F7
:1027C00001208DF8040000208DF8060001208DF80E
:1027D000070002208DF8050069460C48FFF746FF08
:1027E0004FF47040009000208DF804008DF8070031
:1027F00069460648FFF73AFF1CBD00000000024092
:102800000004024000080240000C02400010024098
:10281000F0B5002300244D07ED0E02FA05F3CE10AB
:1028200000F1200555F826504E07F70E0F26BE4042
:10283000B543CF1000F1200646F82750CE1000F126
:10284000200555F8265045EA0304CE1000F1200576
:1028500045F82640F0BD10B500BF0121084601F043
:10286000BFFA0121022001F0BBFA0121042001F08E
:10287000B7FA0121082001F0B3FA0121102001F07C
:10288000AFFA00BF10BD0246002013690B400BB128
:10289000012000E00020704742694A4042617047D1
:1028A0000AB1018300E0418370470246134604E009
:1028B0001078452800D1491E521C0029F8D1D01AA1
:1028C000704710B503461C4610E01878422801D125
:1028D000FF2010BD402A04D11878262801D1FF20FE
:1028E000F7E71878904200D1491E5B1C0029ECD113
:1028F000181BEEE714E00B48006809F00BFF0A49CB
:1029000008600A48006809F005FF0949086009489D
:10291000006809F0FFFE08490860062003F042FC49
:10292000E9E700009001002024000020D0010020F1
:1029300028000020240200202C00002010B50446AE
:1029400000F074F85C2000F03DF800F0BBF82012B5
:1029500000F038F800F0B6F8E0B200F033F800F01C
:10296000B1F800F089F810BD1CB500BF01210220AC
:1029700001F036FA00BF00BF01208DF804000220EC
:102980008DF8050000208DF8060001208DF8070065
:102990004020009069460848FFF768FE80200090BC
:1029A00069460548FFF762FE00BF01200349086041
:1029B0000349C1F898021CBD000402409C824042B9
:1029C0000080404270B504461548006820F440403D
:1029D000134908600846006840F480400860002001
:1029E00010490860002517E0E0090E49091D08603C
:1029F0006006040E042008F0F7FD01200A49C1F822
:102A00009802042008F0F0FD002006490860042028
:102A100008F0EAFD681CC5B2082DE5DB70BD0000BA
:102A200000040240988240420080404210B50F48A6
:102A3000006820F440400D4908600846006840F4F2
:102A40008040086001200A4908600A49C1F89802DC
:102A5000042008F0C9FD002005490860042008F0A2
:102A6000C3FD00200349C1F8980210BD00040240D4
:102A70009C8240420080404210B50F48006820F41C
:102A800040400D4908600846006840F480400860F6
:102A900000200A4908600A49C1F89C02042008F095
:102AA000A3FD012005490860042008F09DFD0120D8
:102AB0000349C1F89C0210BD0004024098824042C4
:102AC0000080404210B500241348006820F44040C4
:102AD0001149086008460068086001200F49086035
:102AE00008F082FD01200E49C1F8980208F07CFD33
:102AF00007E0601CC4B2FA2C03DDFFF7BDFF012024
:102B000010BD0648803800680028F2D10349091F2B
:102B1000086000BFF4E70000000402409C824042CD
:102B20000080404210B5044602200649087208465B
:102B30000460446000200449486102490868FFF7C6
:102B400039FD10BD58B601205C0000201CB50024E2
:102B500017481849486018481849086018484860DC
:102B60001848092100234FF40062CDE9001016A196
:102B700019480AF0CFFE0446012C02D0052003F0CC
:102B800011FB0322002101200AF068FA13490860B2
:102B90000322002101200AF061FA11490860032292
:102BA000002101200AF05AFA0E4908601CBD0000FD
:102BB000F519000850070020FDCD00089401002001
:102BC00085CE0008D0010020436F6D6D57696E649B
:102BD00048616E64000000007D1A0008D4010020E6
:102BE000D8010020DC0100200148024988607047BC
:102BF0002DBA00081C0800201CB50022012108463F
:102C00000AF02CFA064908600648072100234FF411
:102C10001662CDE9001004A106480AF07BFE1CBD37
:102C2000A801002024020020696E737068616E6440
:102C30006C650000B5B60008002002490872086003
:102C40004872704758B6012010B508490848FDF78A
:102C50003DFB28210748FDF739FB0748002181701B
:102C6000C170017105480160416010BDF83B010071
:102C7000E877002030B601206801002070010020B4
:102C80001CB50AF0F3FE1E49086000201D490860CB
:102C900048600022082101200AF0E0F91A49086082
:102CA0000022082101200AF0D9F918490860002201
:102CB000012108460AF0D2F91549086000220821CE
:102CC00001200AF0CBF913490860002214210120E9
:102CD0000AF0C4F9104908600322002101200AF01B
:102CE000BDF90E4908600E48082100234FF4AF6279
:102CF000CDE900100BA10F480AF00CFE1CBD00002E
:102D00009C01002094010020AC010020B0010020B3
:102D1000A8010020A4010020B4010020A00100208F
:102D200090010020576F726B5365717548616E6436
:102D3000000000009D8B00082DE9F0472DED028B6F
:102D4000ADF51E7DFEA000689C90FE4903C99B91D5
:102D50009A909FEDFD0B8DED020B9FEDFB0B8DED22
:102D6000000B9FEDF90BB0EE408AF0EE608A4FF059
:102D70000009642104A8FDF7A9FAC8211DA8FDF7E0
:102D8000A5FA4FF496714FA8FDF7A0FA01F0A4FA46
:102D90008DED020B9FEDEC0B53EC102B9DED020B18
:102DA00051EC100BFDF7D8FC08D09DED020BE84864
:102DB00080ED000B0020E749087009E0E44890ED41
:102DC000000B8DED020BE3480078401CE1490870D0
:102DD00000231A4602A9E04800680AF0DDF9DD4840
:102DE00000780A2804DB2021012003F0AFFB09E072
:102DF000DA48407800F02000202803D1202100206C
:102E000003F0A4FB9CA94FA8FDF76BFAD448D5A109
:102E100002691DA806F064FC1DA94FA8FDF761FA20
:102E2000C8211DA8FDF752FA002001F007F98DED29
:102E3000000B00231A466946CB4800680AF0ACF93B
:102E40009DED000B53EC102BC8A11DA806F048FC0B
:102E50001DA94FA8FDF745FAC8211DA8FDF736FAB0
:102E6000C44890ED041BB0EE410AF0EE610A53EC49
:102E7000102B9DED001B51EC110BFDF76DFC04D2E6
:102E80000721012003F014F913E0BA4890ED041B68
:102E9000B0EE410AF0EE610A53EC102B9DED001BE1
:102EA00051EC110BFDF770FC03D20721002003F059
:102EB000FFF8012001F0C2F8B0EE408AF0EE608A1F
:102EC000AD4880ED008B53EC182BA8A11DA806F08F
:102ED00007FC1DA94FA8FDF704FAC8211DA8FDF79E
:102EE000F5F99DED020B00F0B7FA8DED020B9DEDAB
:102EF000020BA14880ED020B9DED020B53EC102B51
:102F00009AA11DA806F0ECFB1DA94FA8FDF7E9F951
:102F1000C8211DA8FDF7DAF90127012500241DE2CB
:102F2000964850F8240003287EDC9248C06AA842E4
:102F30000AD19048006B38B14FF04D0A524690A12B
:102F40001DA806F0CDFB17E004EBC40000EB041154
:102F50008848483000EB411090ED001BB0EE410A6C
:102F6000F0EE610A51EC100BFDF7BDFB82465246B4
:102F700084A11DA806F0B4FB1DA94FA8FDF7B1F967
:102F8000C8211DA8FDF7A2F97F4890ED002BB0EEF7
:102F9000420AF0EE620A04EBC40000EB041175482B
:102FA000483000EB411090ED022BB0EE421AF0EEEB
:102FB000621A53EC102B51EC110BFDF7CDFB1AD11B
:102FC0007248D0F8F00BB84215D104EBC40000EB06
:102FD00004116848483000EB411090ED021BB0EE40
:102FE000410AF0EE610A53EC102B69A11DA806F00E
:102FF00077FB6D1C15E004EBC40000EB04115D4889
:10300000483000EB411090ED021BB0EE410AF0EEAB
:10301000610A53EC102B60A11DA806F061FB6D1C2A
:103020007F1C1DA94FA800E026E0FDF75AF9C82132
:103030001DA8FDF74BF904EBC40000EB04114D484B
:10304000483000EB411090ED041BB0EE410AF0EE69
:10305000610A51EC100BFDF746FB8246524650A127
:103060001DA806F03DFB1DA94FA8FDF73AF9C821A0
:103070001DA8FDF72BF970E109F101093D49C96A65
:10308000A9420FD03B49C96AA94216DD3B4951F814
:103090002410481E00EBD07105EB6101354AD26A5D
:1030A00091420ADD3349096B39B14FF04D0A52465E
:1030B00033A11DA806F014FB17E004EBC40000EBDD
:1030C00004112C48483000EB411090ED001BB0EE8D
:1030D000410AF0EE610A51EC100BFDF704FB824649
:1030E000524628A11DA806F0FBFA1DA94FA8FDF71E
:1030F000F8F8C8211DA8FDF7E9F8234890ED002B4A
:10310000B0EE420AF0EE620A04EBC40000EB0411D8
:103110001848483000EB411090ED022BB0EE421AF7
:10312000F0EE621A53EC102B51EC110BFDF714FB6F
:103130004ED11648D0F8F00BB84249D132E0000029
:10314000415A000074E20008000000000000000086
:103150008001002088010020AC01002068010020CF
:1031600030B6012025644500B0010020252E3466CC
:1031700045000000E8770020E0B30120B0B0012056
:1031800025632B0025642B0070010020E8A7012097
:10319000252E3466242F0000252E34662F000000D3
:1031A0002564260004EBC40000EB0411A04800EBEA
:1031B000411090ED021BB0EE410AF0EE610A53ECB3
:1031C000102BAFF234011DA806F08AFA6D1C15E031
:1031D00004EBC40000EB0411954800EB411090EDA6
:1031E000021BB0EE410AF0EE610A53EC102BAFF275
:1031F00058011DA806F074FA7F1C6D1C1DA94FA86C
:10320000FDF76FF8C8211DA8FDF760F802267BE0E6
:10321000304606EBD0714910A6EB4101C9B904EB69
:10322000C40000EB0411824800EB411000EBC60023
:1032300090ED001BB0EE410AF0EE610A51EC100B6C
:10324000FDF751FA824652467AA11DA806F048FAC7
:1032500051E004EBC40000EB0411754800EB411091
:1032600000EBC60090ED002BB0EE421AF0EE621AB1
:10327000714890ED002BB0EE420AF0EE620A53EC7A
:10328000102B51EC110BFDF767FA1CD16B48D0F8ED
:10329000F00BB84217D104EBC40000EB04116448F2
:1032A00000EB411000EBC60090ED001BB0EE410AB0
:1032B000F0EE610A53EC102BAFF22C111DA806F0B2
:1032C0000FFA6D1C17E004EBC40000EB0411584822
:1032D00000EB411000EBC60090ED001BB0EE410A80
:1032E000F0EE610A53EC102BAFF254111DA806F05A
:1032F000F7F97F1C6D1C1DA94FA8FCF7F2FFC82130
:103300001DA8FCF7E3FF761C4D4850F82400401E32
:10331000B0423FF77DAF04EBC40000EB041144481A
:1033200000EB411000EBC60090ED001BB0EE410A2F
:10333000F0EE610A51EC100BFDF7D5F982465246CA
:10334000AFF2A4111DA806F0CBF91DA94FA8FCF7F8
:10335000C8FFC8211DA8FCF7B9FF641C3748D0F886
:10336000580AA0423FF7DCAD4FA8FCF7DCFF8046CF
:103370004521A8F101004FAA11542D48483890ED7D
:10338000001BB0EE410AF0EE610A53EC102BAFF2D5
:1033900024211DA806F0A4F91DA94FA8FCF7A1FF40
:1033A000C8211DA8FCF792FF26484278AFF24C21B5
:1033B0001DA806F095F91DA94FA8FCF792FFC8219A
:1033C0001DA8FCF783FF1F4800791E498870084636
:1033D0008278AFF270211DA806F082F91DA94FA8CE
:1033E000FCF77FFFC8211DA8FCF770FF164817A146
:1033F000C2681DA806F074F91DA94FA8FCF771FF5B
:10340000C8211DA8FCF762FF9AA94FA8FCF769FF25
:103410004FA8FCF788FF00F0FF0A51464FA804F0C0
:10342000A7F90DF51E7DBDEC028BBDE8F08700000D
:10343000307800202564400070010020E8A70120BA
:10344000B0B001206801002030B6012025640000E2
:1034500000BFFEE77047000010B52DED0A8BB0EEFF
:10346000408AF0EE608A9FEDFE0BB0EE409AF0EEDF
:10347000609A9FEDFB0B00F03FFBB0EE40AAF0EE30
:1034800060AA53EC182B51EC1A0BFDF765F944D2E6
:103490009FEDF50B00F030FBB0EE40AAF0EE60AA15
:1034A00053EC182B51EC1A0BFDF76EF922D39FED5C
:1034B000EE0B00F021FBB0EE40CAF0EE60CA53EC18
:1034C000182B51EC1C0BFDF70CF841EC1B0BB0EE6C
:1034D0004B0AF0EE6B0A06F057FAB0EE40AAF0EE97
:1034E00060AA9FEDE30B53EC102B51EC1A0BFDF788
:1034F00033F912D89FEDE00B53EC102B51EC180B65
:10350000FCF7F2FF41EC1A0B9FEDDD0B53EC102B97
:10351000FCF7E4FF41EC190B4CE29FEDD30B00F0FC
:10352000EBFAB0EE40AAF0EE60AA53EC182B51EC87
:103530001A0BFDF711F921D29FEDD30B00F0DCFA45
:10354000B0EE40AAF0EE60AA53EC182B51EC1A0B27
:10355000FDF71AF912D29FEDCE0B53EC102B51EC64
:10356000180BFCF7C1FF41EC1A0B9FEDCB0B53EC92
:10357000102BFCF7B3FF41EC190B1BE29FEDC20BC4
:1035800000F0BAFAB0EE40AAF0EE60AA53EC182BA5
:1035900051EC1A0BFDF7E0F822D39FEDBB0B00F0C6
:1035A000ABFAB0EE40CAF0EE60CA53EC182B51EC07
:1035B0001C0BFCF796FF41EC1B0BB0EE4B0AF0EE38
:1035C0006B0A06F0E1F9B0EE40AAF0EE60AA9FEDBA
:1035D000A80B53EC102B51EC1A0BFDF7BDF844D897
:1035E0009FEDAF0B00F088FAB0EE40AAF0EE60AAB3
:1035F00053EC182B51EC1A0BFDF7C6F822D39FEDB4
:10360000A80B00F079FAB0EE40CAF0EE60CA53ECB5
:10361000182B51EC1C0BFCF764FF41EC1B0BB0EEBC
:103620004B0AF0EE6B0A06F0AFF9B0EE40AAF0EEEE
:1036300060AA9FED8F0B53EC102B51EC1A0BFDF78A
:103640008BF812D89FED980B53EC102B51EC180B04
:10365000FCF74AFF41EC1A0B9FED950B53EC102B36
:10366000FCF73CFF41EC190BA4E19FED8D0B00F042
:1036700043FAB0EE40AAF0EE60AA53EC182B51ECDE
:103680001A0BFDF769F821D29FED8B0B00F034FA8D
:10369000B0EE40AAF0EE60AA53EC182B51EC1A0BD6
:1036A000FDF772F812D29FED860B53EC102B51EC04
:1036B000180BFCF719FF41EC1A0B9FED830B53EC31
:1036C000102BFCF70BFF41EC190B73E19FED7A0B0C
:1036D00000F012FAB0EE40AAF0EE60AA53EC182BFC
:1036E00051EC1A0BFDF738F822D39FED730B00F065
:1036F00003FAB0EE40CAF0EE60CA53EC182B51EC5E
:103700001C0BFCF7EEFE41EC1B0BB0EE4B0AF0EE8F
:103710006B0A06F039F9B0EE40AAF0EE60AA9FED10
:10372000540B53EC102B51EC1A0BFDF715F844D841
:103730009FED670B00F0E0F9B0EE40AAF0EE60AA52
:1037400053EC182B51EC1A0BFDF71EF822D39FED0A
:10375000600B00F0D1F9B0EE40CAF0EE60CA53EC55
:10376000182B51EC1C0BFCF7BCFE41EC1B0BB0EE14
:103770004B0AF0EE6B0A06F007F9B0EE40AAF0EE45
:1037800060AA9FED3B0B53EC102B51EC1A0BFCF78E
:10379000E3FF12D89FED500B53EC102B51EC180B9C
:1037A000FCF7A2FE41EC1A0B9FED4D0B53EC102BD6
:1037B000FCF794FE41EC190BFCE09FED450B00F08B
:1037C0009BF9B0EE40AAF0EE60AA53EC182B51EC36
:1037D0001A0BFCF7C1FF21D29FED430B00F08CF9CF
:1037E000B0EE40AAF0EE60AA53EC182B51EC1A0B85
:1037F000FCF7CAFF12D29FED3E0B53EC102B51EC9D
:10380000180BFCF771FE41EC1A0B9FED3B0B53ECD0
:10381000102BFCF763FE41EC190BCBE09FED320B54
:1038200000F06AF9B0EE40AAF0EE60AA53EC182B53
:1038300051EC1A0BFCF790FF73D39FED2B0B00F0AC
:103840005BF9B0EE40CAF0EE60CA53EC182B51ECB5
:103850001C0BFCF746FE41EC1B0BB0EE4B0A4FE095
:1038600000000000000000000000000000002440F4
:10387000000000E04D62503F6ABC74931804F13FB1
:1038800097900F7A36ABFB3F0000000000004940E4
:103890009031772D211FF13F1904560E2DB2FB3FB9
:1038A0000000000000004E4005C58F31772DF13F2C
:1038B000986E1283C0CAFB3F0000000000405040D9
:1038C0003A234A7B832FF13FFED478E92631FC3F2F
:1038D0000000000000C052406F8104C58F31F13FED
:1038E000643BDF4F8D97FC3F000000000080564096
:1038F000E63FA4DFBE0EF13F5C8FC2F5285CF33FCC
:10390000F0EE6B0A06F040F8B0EE40AAF0EE60AAC6
:103910001FED290B53EC102B51EC1A0BFCF71CFF7D
:1039200044D89FED280B00F0E7F8B0EE40AAF0EE87
:1039300060AA53EC182B51EC1A0BFCF725FF22D38D
:103940009FED200B00F0D8F8B0EE40CAF0EE60CA50
:1039500053EC182B51EC1C0BFCF7C3FD41EC1B0B7B
:10396000B0EE4B0AF0EE6B0A06F00EF8B0EE40AA8D
:10397000F0EE60AA1FED420B53EC102B51EC1A0B2A
:10398000FCF7EAFE12D89FED110B53EC102B51EC13
:10399000180BFCF7A9FD41EC1A0B9FED0E0B53EC35
:1039A000102BFCF7FAFC41EC190B03E0B0EE489A3F
:1039B000F0EE689AB0EE490AF0EE690ABDEC0A8BA7
:1039C00010BD0000000000000000594090A0F83138
:1039D000E6AEF03F3B014D840D4FEF3F70B5002147
:1039E00000230F22C4781CB3174C246804F4E0644D
:1039F000C4F5E064C4F30721C1F10404E3B20A4151
:103A000044789C40E1B28478144021430C07210E95
:103A10000E4C05786155047804F01F050124AC4074
:103A200005786D11AD0005F1E025C5F8004109E00C
:103A3000047804F01F050124AC40054D067876118A
:103A400045F8264070BD00000CED00E000E400E009
:103A500080E100E002490143024A11607047000022
:103A60000000FA050CED00E01CB500240E480068CB
:103A700018B10D48006808F0EBFF64210B4809F00D
:103A800079FF0948082100234FF4AF62CDE9001007
:103A900007A10B4809F03EFF0446012C02D0072085
:103AA00002F080FB1CBD0000900100209C01002062
:103AB000576F726B5365717548616E64000000004A
:103AC0009D8B00082DE9F04107460D4616462C4611
:103AD00004E02146384603F053FA641EB442F8DA93
:103AE000BDE8F08170B505460E46144621462846CD
:103AF00002F08AFF70BD000010B52DED068BB0EE10
:103B0000408AF0EE608A9FED8A0BB0EE409AF0EEAC
:103B1000609A9FED870B53EC102B51EC180BFCF7C0
:103B200033FE1BD29FED840B53EC102B51EC180B82
:103B3000FCF712FE12D89FED820B53EC102B51ECC8
:103B4000180BFCF72AFC41EC1A0B9FED7F0B53EC92
:103B5000102BFCF73BFD41EC190BE1E09FED760BE0
:103B600053EC102B51EC180BFCF70EFE1BD29FED03
:103B7000780B53EC102B51EC180BFCF7EDFD12D227
:103B80009FED750B53EC102B51EC180BFCF705FC5B
:103B900041EC1A0B9FED720B53EC102BFCF716FD4A
:103BA00041EC190BBCE09FED6A0B53EC102B51EC70
:103BB000180BFCF7E9FD1BD89FED6B0B53EC102B9A
:103BC00051EC180BFCF7C8FD12D89FED690B53ECB4
:103BD000102B51EC180BFCF7E0FB41EC1A0B9FED9E
:103BE000660B53EC102BFCF7F1FC41EC190B97E042
:103BF0009FED5D0B53EC102B51EC180BFCF7C4FD43
:103C00001BD29FED5F0B53EC102B51EC180BFCF704
:103C1000A3FD12D29FED5C0B53EC102B51EC180B53
:103C2000FCF7BBFB41EC1A0B9FED590B53EC102B2F
:103C3000FCF7CCFC41EC190B72E09FED510B53ECFF
:103C4000102B51EC180BFCF79FFD1BD89FED520B6E
:103C500053EC102B51EC180BFCF77EFD12D89FEDA6
:103C6000500B53EC102B51EC180BFCF796FB41EC6E
:103C70001A0B9FED4D0B53EC102BFCF7A7FC41ECFE
:103C8000190B4DE09FED440B53EC102B51EC180B2E
:103C9000FCF77AFD1BD29FED460B53EC102B51EC39
:103CA000180BFCF759FD12D29FED430B53EC102B70
:103CB00051EC180BFCF771FB41EC1A0B9FED400B1C
:103CC00053EC102BFCF782FC41EC190B28E09FED24
:103CD000380B53EC102B51EC180BFCF755FD1BD88F
:103CE0009FED390B53EC102B51EC180BFCF734FD06
:103CF00012D89FED370B53EC102B51EC180BFCF73F
:103D0000EDFB41EC1A0B9FED340B53EC102BFCF741
:103D10005DFC41EC190B03E0B0EE489AF0EE689AB6
:103D2000B0EE490AF0EE690ABDEC068B10BD00004A
:103D3000000000000000000000000000000024401F
:103D400097900F7A36ABFB3F6ABC74931804F13F2F
:103D500000000000000049401904560E2DB2FB3F40
:103D60009031772D211FF13F0000000000004E40F0
:103D7000986E1283C0CAFB3F05C58F31772DF13F86
:103D80000000000000405040FED478E92631FC3F9E
:103D90003A234A7B832FF13F0000000000C05240CD
:103DA000643BDF4F8D97FC3F6F8104C58F31F13F3E
:103DB00000000000008056405C8FC2F5285CF33F95
:103DC000E63FA4DFBE0EF13F0000000000005940B6
:103DD0003B014D840D4FEF3F90A0F831E6AEF03F30
:103DE00029B1064A12680243044B1A6004E0034AF0
:103DF00012688243014B1A6070470000303802405D
:103E000029B1064A12680243044B1A6004E0034ACF
:103E100012688243014B1A6070470000403802402C
:103E200029B1064A12680243044B1A6004E0034AAF
:103E300012688243014B1A6070470000203802402C
:103E400029B1064A12680243044B1A6004E0034A8F
:103E500012688243014B1A607047000044380240E8
:103E600029B1064A12680243044B1A6004E0034A6F
:103E700012688243014B1A607047000024380240E8
:103E8000F0B5002100220024022500260223324F33
:103E90003F6807F00C0121B1042905D0082937D16A
:103EA00005E02E4F076036E02D4F076033E02A4FC4
:103EB0003F1F3F68C7F38056274F3F1F3F6807F0FB
:103EC0003F036EB1264FB7FBF3F7DFF88CC0ACF1C0
:103ED000040CDCF800C0CCF3881C07FB0CF40CE0ED
:103EE0001E4FB7FBF3F7DFF870C0ACF1040CDCF841
:103EF00000C0CCF3881C07FB0CF4174F3F1F3F6832
:103F0000C7F301477F1C7D00B4FBF5F7076002E0B3
:103F1000124F076000BF00BF0F4F3F6807F0F0016E
:103F20000909104F7A5C0768D74047600A4F3F681D
:103F300007F4E051890A0B4F7A5C4768D7408760E5
:103F4000054F3F6807F46041490B064F7A5C4768AC
:103F5000D740C760F0BD0000083802400024F400DC
:103F600000127A001400002070B5064600240025D7
:103F700000BF08E0304600F00DF80544052008F0C9
:103F800039FD601CC4B2052CF4DBB5FBF4F080B243
:103F900070BD000010B504460723012221460848E1
:103FA000FDF794F90648FDF7EDF900BF022104483A
:103FB000FDF71EF90028F9D00148FDF715F910BDED
:103FC0000020014070B50446FA25072C2ED2DFE808
:103FD00004F0042D0A11181F260001211548FEF7D0
:103FE00052FC054622E04FF480511248FEF74BFC8C
:103FF00005461BE04FF400510F48FEF744FC054610
:1040000014E04FF480510C48FEF73DFC05460DE0EE
:104010004FF400410848FEF736FC054606E04FF431
:1040200080410548FEF72FFC054600BF00BF28462B
:1040300070BD0000000C02400010024070B52DED74
:10404000108B044600259FED940BB0EE40AAF0EED5
:1040500060AA9FED930BB0EE408AF0EE608A9FED70
:104060008E0BB0EE409AF0EE609A052C5FD2DFE83E
:1040700004F0035FBBD5F0000420FFF775FF054691
:104080002846FCF723FB41EC1D0B53EC1D2B9FED49
:10409000860B51EC100BFCF799FA41EC1C0B9FEDD1
:1040A000840B53EC102BFCF719FA41EC1B0B53EC6F
:1040B0001B2B51EC180BFCF789FA41EC190B9FED07
:1040C000780B53EC102B51EC190BFCF77FFA41ECF9
:1040D0001F0BB0EE4F0AF0EE6F0A05F061FCB0EE78
:1040E00040EAF0EE60EA9FED740B53EC102B51ECBC
:1040F0001E0BFCF7F9F941EC1D0B9FED710B53EC16
:10410000102BFCF74AF941EC1C0B53EC1C2B9FEDD8
:10411000680B51EC100BFCF759FA41EC1B0B9FEDAF
:104120006A0B53EC102BFCF7D9F941EC1A0BAAE0FF
:104130000220FFF719FF05462846FCF7C7FA41ECB5
:104140001D0B53EC1D2B9FED580B51EC100BFCF786
:104150003DFA41EC1C0B9FED560B53EC102BFCF77A
:10416000BDF941EC1B0B53EC1B2B51EC180BFCF76E
:104170002DFA41EC190B9FED4A0B53EC102B51EC2F
:10418000190BFCF723FA41EC1F0BB0EE4F0AF0EECF
:104190006F0A05F005FCB0EE40EAF0EE60EA9FED34
:1041A000460B53EC102B51EC1E0BFCF79DF941EC28
:1041B0001D0B9FED430B53EC102BFCF7EEF841EC7D
:1041C0001C0B53EC1C2B9FED3A0B51EC100BFCF726
:1041D000FDF941EC1B0B9FED3C0B53EC102BFCF756
:1041E0007DF941EC1A0B4EE00320FFF7BDFE0546BA
:1041F0002846FCF76BFA41EC1C0B9FED350B53EC9A
:10420000102BFCF771F941EC1B0B9FED270B53ECC6
:10421000102BFCF7DBF941EC1A0B34E00120FFF71F
:10422000A3FE05462846FCF751FA41EC1C0B9FED16
:10423000280B53EC102BFCF757F941EC1B0B9FEDAF
:104240001A0B53EC102BFCF7C1F941EC1A0B1AE0D6
:10425000FFE70520FFF788FE05462846FCF736FAFB
:1042600041EC1C0B9FED1A0B53EC102BFCF73CF9A7
:1042700041EC1B0B9FED0C0B53EC102BFCF7A6F93C
:1042800041EC1A0B00BF00BFB0EE4A0AF0EE6A0A1A
:10429000BDEC108B70BD00000000000000000000AD
:1042A000000000000088C3400000000000FEAF4096
:1042B000000000000000F03F050955613214333F53
:1042C00083DBB5DCE1796B3F66666666661271403A
:1042D000F4FDD478E9260A4030B52DED028B89B083
:1042E0002022314901A8FBF7D8FF9FED300BB0EE3B
:1042F000408AF0EE608A002436E086212D48FBF7E4
:10430000E5FF01A8FCF70FF885B2294601A803F0E4
:1043100065FC0CE027488088401C264988800A20DC
:1043200008F068FB23488088C82800DB03E02148A8
:1043300040880028EED000BF1E480088152808D10C
:1043400000211C48801DFDF7F9F9B0EE408AF0EE1F
:10435000608A9FED160B53EC102B51EC180BFCF7F9
:10436000FBF900D002E0641C022CC6DB00BF9FED0D
:104370000F0B53EC102B51EC180BFCF705FA10D275
:104380009FED0D0B53EC102B51EC180BFCF7E4F9DF
:1043900007D2B0EE480AF0EE680A09B0BDEC028B15
:1043A00030BD9FED020BF8E7CCDF000800000000F5
:1043B000000000005C7700200000000000C06240A8
:1043C0001FB52DED040B98B09FEDFE0B53EC102B99
:1043D0009DED180B51EC100BFCF7D6F97DD89FED35
:1043E000FB0B53EC102B9DED180B51EC100BFCF755
:1043F000B3F972D29DED1A0B53EC102B9DED180BF7
:1044000051EC100BFCF7C0F90AD99FEDF20B53ECFD
:10441000102B9DED180B51EC100BFCF79DF97CD285
:104420009FEDEE1B9DED180B05F09EFC8DED100B26
:104430009FEDEC0B53EC102B9DED100B51EC100B82
:10444000FCF752F89FEDE91BCDE914019DED180B27
:1044500005F08AFC8DED0C0B9FEDE60B53EC102B59
:104460009DED0C0B51EC100BFCF73EF89FEDE31BA0
:10447000CDE910019DED180B05F076FC8DED080BD4
:104480009FEDE00B53EC102B9DED080B51EC100B46
:10449000FCF72AF89FEDCB1BCDE90C019DED180B25
:1044A00005F062FC8DED080B9FEDD80B53EC102B43
:1044B0009DED080B51EC100BFCF716F8CDE90A0145
:1044C0009DED0C0B53EC102B9DED0A0B51EC100BDA
:1044D000FCF704F8CDE90E0100E09EE39DED100B22
:1044E00053EC102B9DED0E0B51EC100BFBF755FF11
:1044F000CDE912019DED140B53EC102B9DED120B29
:1045000051EC100BFBF7EAFF9FEDC20B53EC102BA5
:10451000CDE916019DED160B00E011E151EC100BF9
:10452000FBF73BFF0A4601461C9806C09FEDAB1BFC
:104530009DED180B05F018FC8DED100B9FEDB70BE2
:1045400053EC102B9DED100B51EC100BFBF7CCFF37
:104550009FEDA61BCDE914019DED180B05F004FCA1
:104560008DED0C0B9FEDAF0B53EC102B9DED0C0B59
:1045700051EC100BFBF7B8FF9FEDA01BCDE910012C
:104580009DED180B05F0F0FB8DED080B9FEDA70BD3
:1045900053EC102B9DED080B51EC100BFBF7A4FF17
:1045A0009FED881BCDE90C019DED180B05F0DCFBA0
:1045B0008DED080B9FED9F0B53EC102B9DED080B21
:1045C00051EC100BFBF790FFCDE90A019DED0C0BB0
:1045D00053EC102B9DED0A0B51EC100BFBF77EFFFB
:1045E000CDE90E019DED100B53EC102B9DED0E0B44
:1045F00051EC100BFBF7D1FECDE912019DED140B30
:1046000053EC102B9DED120B51EC100BFBF766FFDA
:104610009FED8A0B53EC102BCDE916019DED160B87
:1046200051EC100BFBF7B9FE0A4601461D9806C077
:104630009FED6A1B9DED180B05F096FB8DED100BA1
:104640009FED800B53EC102B9DED100B51EC100BDC
:10465000FBF74AFF9FED651BCDE914019DED180B9B
:1046600005F082FB8DED0C0B9FED780B53EC102BBE
:104670009DED0C0B51EC100BFBF736FF9FED5F1B14
:10468000CDE910019DED180B05F06EFB8DED080BCB
:104690009FED700B53EC102B9DED080B51EC100BA4
:1046A000FBF722FF9FED471BCDE90C019DED180B99
:1046B00005F05AFB8DED080B9FED680B53EC102BAA
:1046C0009DED080B51EC100BFBF70EFFCDE90A0135
:1046D0009DED0C0B53EC102B9DED0A0B51EC100BC8
:1046E000FBF75BFECDE90E019DED100B53EC102B9B
:1046F0009DED0E0B51EC100BFBF7F0FECDE9120116
:104700009DED140B53EC102B9DED120B51EC100B87
:10471000FBF743FE9FED530B53EC102BCDE9160135
:104720009DED160B51EC100BFBF737FE0A460146C8
:104730001E9806C09FED4D0B1F9880ED000BFDE30A
:104740009FED261B9DED180B05F00EFB8DED100B5C
:104750009FED480B53EC102B9DED100B51EC100B03
:10476000FBF7C2FE9FED211BCDE914019DED180B57
:1047700005F0FAFA8DED0C0B9FED400B53EC102B6E
:104780009DED0C0B51EC100BFBF7AEFE9FED1B1BD0
:10479000CDE910019DED180B05F0E6FA8DED080B43
:1047A0009FED380B53EC102B9DED080B51EC100BCB
:1047B000FBF79AFE9FED031BCDE90C019DED180B55
:1047C00064E0000000000000000010400000000055
:1047D000000044400000000000003E4000000000D7
:1047E0000000F03F4886AE7D55DED43F000000005B
:1047F00000000040E69841FED55A903F00000000BE
:10480000000008406B022D1E49244A3FC71DBA1103
:10481000BFEAE93EF978CDE276563040350D925C3C
:104820001F44913F38E5767ECC84913F7C76D79BC0
:1048300024F34E3F15E82E7E493BEB3E92BC8C4D57
:10484000005CF43F2DF347A7127FBC3F6F08BC5EAE
:1048500081C1A03FA98C0CF1A2F4533F13E0047472
:104860005276E9BE1926A8071B103F400000000041
:10487000000059406B5456565656E63F2E39A20852
:104880006FD5AB3F28AA59A182FD613F05F06CFAB4
:104890008DED080B9FEDFD0B53EC102B9DED080BE0
:1048A00051EC100BFBF720FECDE90A019DED0C0B3E
:1048B00053EC102B9DED0A0B51EC100BFBF70EFE89
:1048C000CDE90E019DED100B53EC102B9DED0E0B61
:1048D00051EC100BFBF761FDCDE912019DED140BBE
:1048E00053EC102B9DED120B51EC100BFBF7F6FD6A
:1048F0009FEDE80B53EC102BCDE916019DED160B47
:1049000051EC100BFBF749FD0A4601461C9806C006
:104910001FED4E1B9DED180B05F026FA8DED100BCB
:104920009FEDDE0B53EC102B9DED100B51EC100B9B
:10493000FBF7DAFD1FED531BCDE914019DED180BBC
:1049400005F012FA8DED0C0B9FEDD60B53EC102BEE
:104950009DED0C0B51EC100BFBF7C6FD1FED591B29
:10496000CDE910019DED180B05F0FEF98DED080B5A
:104970009FEDCE0B53EC102B9DED080B51EC100B63
:10498000FBF7B2FD1FED711BCDE90C019DED180B7E
:1049900005F0EAF98DED080B9FEDC60B53EC102BDB
:1049A0009DED080B51EC100BFBF79EFDCDE90A01C4
:1049B0009DED0C0B53EC102B9DED0A0B51EC100BE5
:1049C000FBF78CFDCDE90E019DED100B53EC102B88
:1049D0009DED0E0B51EC100BFBF7DFFCCDE9120146
:1049E0009DED140B53EC102B9DED120B51EC100BA5
:1049F000FBF774FD9FEDB10B53EC102BCDE91601C5
:104A00009DED160B51EC100BFBF7C7FC1D9A03C272
:104A10001FED8E1B9DED180B05F0A6F98DED100B0B
:104A20009FEDA80B53EC102B9DED100B51EC100BD0
:104A3000FBF75AFD1FED931BCDE914019DED180BFB
:104A400005F092F98DED0C0B9FEDA00B53EC102BA4
:104A50009DED0C0B51EC100BFBF746FD1FED991B68
:104A6000CDE910019DED180B05F07EF98DED080BD9
:104A70009FED980B53EC102B9DED080B51EC100B98
:104A8000FBF732FD1FEDB11BCDE90C019DED180BBD
:104A900005F06AF98DED080B9FED900B53EC102B90
:104AA0009DED080B51EC100BFBF71EFDCDE90A0143
:104AB0009DED0C0B53EC102B9DED0A0B51EC100BE4
:104AC000FBF76BFCCDE90E019DED100B53EC102BA9
:104AD0009DED0E0B51EC100BFBF700FDCDE9120123
:104AE0009DED140B53EC102B9DED120B51EC100BA4
:104AF000FBF753FC9FED7B0B53EC102BCDE916011C
:104B00009DED160B51EC100BFBF747FC0A460146D6
:104B10001E9806C01FEDCF1B9DED180B05F024F964
:104B20008DED100B9FED710B53EC102B9DED100BC9
:104B300051EC100BFBF7D8FC1FEDD41BCDE9140191
:104B40009DED180B05F010F98DED0C0B9FED690B29
:104B500053EC102B9DED0C0B51EC100BFBF7C4FC30
:104B60001FEDDA1BCDE910019DED180B05F0FCF8E7
:104B70008DED080B9FED610B53EC102B9DED080B99
:104B800051EC100BFBF7B0FC1FEDF21BCDE90C0153
:104B90009DED180B05F0E8F88DED080B9FED590B16
:104BA00053EC102B9DED080B51EC100BFBF79CFC0C
:104BB000CDE90A019DED0C0B53EC102B9DED0A0B7A
:104BC00051EC100BFBF7E9FBCDE90E019DED100B4D
:104BD00053EC102B9DED0E0B51EC100BFBF77EFCF4
:104BE000CDE912019DED140B53EC102B9DED120B32
:104BF00051EC100BFBF7D1FB9FED440B53EC102B4A
:104C0000CDE916019DED160B51EC100BFBF7C5FB22
:104C10000A4601461F9806C091E59FED3E0B53ECF6
:104C2000102B9DED180B51EC100BFBF7ADFD2CD8A4
:104C30009FED3A0B53EC102B9DED180B51EC100B24
:104C4000FBF78AFDF3D89DED1A0B53EC102B9DED6D
:104C5000180B51EC100BFBF797FD6FD89FED311B34
:104C60009DED180B05F080F88DED100B9FED2F0BCF
:104C700053EC102B9DED100B51EC100BFBF734FC9B
:104C80009FED2C1BCDE9140159E0FDE31FE78CFDDE
:104C90003A45FC3E3B787878787831406914825DFB
:104CA00014820440675F5F5F5F5FD13F7E50A5BFA6
:104CB0003120843F5900741371B11D3FD1A75ECCE0
:104CC000A75E2240916AFD216BFD1140A4D0379E62
:104CD000046BDD3FFE257D4864878F3F53328CB9DE
:104CE00028B525BF318A40AE89403140B3D019ACD8
:104CF000D0191740E656BD238AF0DA3F74E6E01C6F
:104D000076A3723F0F70D1248E56003FC8A75ECCA9
:104D1000A7DE5340000000000000444000000000F7
:104D200000C05740000000000000F03F57CC89BE93
:104D3000E671504000000000000000404FE39DED90
:104D4000180B05F011F88DED0C0B9FEDFE0B53ECDD
:104D5000102B9DED0C0B51EC100BFBF7C5FB9FEDE1
:104D6000FB1BCDE910019DED180B04F0FDFF8DED4F
:104D7000080B9FEDF80B53EC102B9DED080B51EC3D
:104D8000100BFBF7B1FB9FEDF51BCDE90C019DED81
:104D9000180B04F0E9FF8DED040B9FEDF20B53ECC3
:104DA000102B9DED040B51EC100BFBF79DFB9FEDC1
:104DB000EF1BCDE908019DED180B04F0D5FF8DED3B
:104DC000000B9FEDEC0B53EC102B9DED000B51EC09
:104DD000100BFBF789FB9FEDE91BCDE904019DED6D
:104DE000180B04F0C1FF8DED000B9FEDE60B53ECAB
:104DF000102B9DED000B51EC100BFBF775FBCDE973
:104E000002019DED040B53EC102B9DED020B51ECB8
:104E1000100BFBF763FBCDE906019DED080B53EC8E
:104E2000102B9DED060B51EC100BFBF7B6FACDE9FC
:104E30000A019DED0C0B53EC102B9DED0A0B51EC70
:104E4000100BFBF74BFBCDE90E019DED100B53EC66
:104E5000102B9DED0E0B51EC100BFBF79EFACDE9DC
:104E600012019DED140B53EC102B9DED120B51EC28
:104E7000100BFBF733FB9FEDC50B53EC102BCDE96B
:104E800016019DED160B51EC100BFBF786FA0A4646
:104E900001461C9806C01FED5D1B9DED180B04F02C
:104EA00063FF8DED100B9FEDBB0B53EC102B9DEDB5
:104EB000100B51EC100BFBF717FB1FED621BCDE93C
:104EC00014019DED180B04F04FFF8DED0C0B9FEDC1
:104ED000B30B53EC102B9DED0C0B51EC100BFBF7AF
:104EE00003FB9FED9A1BCDE910019DED180B04F01B
:104EF0003BFF8DED080B9FEDAB0B53EC102B9DEDA5
:104F0000080B51EC100BFBF7EFFA9FED941BCDE96A
:104F10000C019DED180B04F027FF8DED040B9FEDA8
:104F2000A30B53EC102B9DED040B51EC100BFBF776
:104F3000DBFA9FED8E1BCDE9080100E04EE29DED0E
:104F4000180B04F011FF8DED000B9FED9A0B53EC45
:104F5000102B9DED000B51EC100BFBF7C5FA9FEDEC
:104F6000871BCDE904019DED180B04F0FDFE8DEDCE
:104F7000000B9FED920B53EC102B9DED000B51ECB1
:104F8000100BFBF7B1FACDE902019DED040B53ECD8
:104F9000102B9DED020B51EC100BFBF79FFACDE9A6
:104FA00006019DED080B53EC102B9DED060B51EC0B
:104FB000100BFBF7F2F9CDE90A019DED0C0B53EC58
:104FC000102B9DED0A0B51EC100BFBF787FACDE986
:104FD0000E019DED100B53EC102B9DED0E0B51ECC3
:104FE000100BFBF7DAF9CDE912019DED140B53EC30
:104FF000102B9DED120B51EC100BFBF76FFA9FED90
:10500000710B53EC102BCDE916019DED160B51ECF5
:10501000100BFBF7C2F91D9A03C21FEDBE1B9DEDDD
:10502000180B04F0A1FE8DED100B9FED680B53ECF7
:10503000102B9DED100B51EC100BFBF755FA1FEDEB
:10504000C31BCDE914019DED180B04F08DFE8DED11
:105050000C0B9FED600B53EC102B9DED0C0B51ECEA
:10506000100BFBF741FA9FED391BCDE910019DEDC7
:10507000180B04F079FE8DED080B9FED580B53ECE7
:10508000102B9DED080B51EC100BFBF72DFA9FED4B
:10509000331BCDE90C019DED180B04F065FE8DED81
:1050A000040B9FED500B53EC102B9DED040B51ECBA
:1050B000100BFBF719FA9FED2D1BCDE908019DEDB3
:1050C000180B04F051FE8DED000B9FED480B53ECD7
:1050D000102B9DED000B51EC100BFBF705FA9FED2B
:1050E000271BCDE904019DED180B04F03DFE8DED6D
:1050F000000B9FED400B53EC102B9DED000B51EC82
:10510000100BFBF7F1F9CDE902019DED040B53EC17
:10511000102B9DED020B51EC100BFBF73EF9CDE986
:1051200006019DED080B53EC102B9DED060B51EC89
:10513000100BFBF7D3F9CDE90A019DED0C0B53ECF5
:10514000102B5BE0155C1389E67D06400000000033
:1051500000000840D6EF4A319FDBAF3F000000005F
:1051600000001040011802227EAC483F0000000001
:1051700000001440CD9BD72488D5D33E000000000A
:10518000000018408AB5B9EBA8E6493E89B6204F21
:10519000099A8340C1AB56FFDF8A6A409BDECBD5BC
:1051A00019C32140D3F57BA66BAFC83F3B4576C5FD
:1051B000FDCF623F80BABDB194DCED3ECC89472281
:1051C0009050633E696FFB86B515A04031BB33B884
:1051D00046FC754054DE78C6D4BC2C4087072112AB
:1051E00070C4D33FEBBC3858712F6E3FC5C085D516
:1051F000213CF83E41AB107E47EE6FBE9DED0A0BA1
:1052000051EC100BFBF7C9F8CDE90E019DED100B29
:1052100053EC102B9DED0E0B51EC100BFBF75EF9D0
:10522000CDE912019DED140B53EC102B9DED120BEB
:1052300051EC100BFBF7B1F89FEDFE0B53EC102B6C
:10524000CDE916019DED160B51EC100BFBF746F95D
:105250000A4601461E9806C09FEDF81B9DED180BEF
:1052600004F082FD8DED100B9FEDF60B53EC102B2F
:105270009DED100B51EC100BFBF736F99FEDF31B76
:10528000CDE914019DED180B04F06EFD8DED0C0BB6
:105290009FEDF00B53EC102B9DED0C0B51EC100B14
:1052A000FBF722F91FED571BCDE910019DED180BFF
:1052B00004F05AFD8DED080B9FEDE80B53EC102B1D
:1052C0009DED080B51EC100BFBF70EF91FED5D1B6C
:1052D000CDE90C019DED180B04F046FD8DED040B9E
:1052E0009FEDE00B53EC102B9DED040B51EC100BDC
:1052F000FBF7FAF81FED631BCDE908019DED180BD4
:1053000004F032FD8DED000B9FEDD80B53EC102B0C
:105310009DED000B51EC100BFBF7E6F81FED691B40
:10532000CDE904019DED180B04F01EFD8DED000B81
:105330009FEDD00B53EC102B9DED000B51EC100B9F
:10534000FBF7D2F8CDE902019DED040B53EC102BD5
:105350009DED020B51EC100BFBF71FF8CDE9060198
:105360009DED080B53EC102B9DED060B51EC100B33
:10537000FBF7B4F8CDE90A019DED0C0B53EC102BB3
:105380009DED0A0B51EC100BFBF707F8CDE90E0170
:105390009DED100B53EC102B9DED0E0B51EC100BF3
:1053A000FBF79CF8CDE912019DED140B53EC102B8B
:1053B0009DED120B51EC100BFAF7EFFF9FEDAF0BC9
:1053C00053EC102BCDE916019DED160B51EC100B93
:1053D000FBF784F80A4601461F9806C077E39FED65
:1053E000971B9DED180B04F0BFFC8DED100B9FED8E
:1053F000A50B53EC102B9DED100B51EC100BFBF794
:1054000073F89FED921BCDE914019DED180B04F08C
:10541000ABFC8DED0C0B1FEDB50B53EC102B9DED84
:105420000C0B51EC100BFBF75FF81FEDB81BCDE92F
:1054300010019DED180B04F097FC8DED080B1FED8E
:10544000BB0B53EC102B9DED080B51EC100BFBF735
:105450004BF81FEDBE1BCDE90C019DED180B04F0C0
:1054600083FC8DED040B1FEDC10B53EC102B9DED58
:10547000040B51EC100BFBF737F81FEDC41BCDE903
:1054800008019DED180B00E00DE304F06DFC8DEDBF
:10549000000B9FED7E0B53EC102B9DED000B51ECA0
:1054A000100BFBF721F81FEDCB1BCDE904019DED9F
:1054B000180B04F059FC8DED000B9FED760B53ECAF
:1054C000102B9DED000B51EC100BFBF70DF8CDE907
:1054D00002019DED040B53EC102B9DED020B51ECE2
:1054E000100BFAF7FBFFCDE906019DED080B53EC1D
:1054F000102B9DED060B51EC100BFAF74EFFCDE98A
:105500000A019DED0C0B53EC102B9DED0A0B51EC99
:10551000100BFAF7E3FFCDE90E019DED100B53ECF4
:10552000102B9DED0E0B51EC100BFAF736FFCDE969
:1055300012019DED140B53EC102B9DED120B51EC51
:10554000100BFAF7CBFF1FEDEF0B53EC102BCDE94F
:1055500016019DED160B51EC100BFAF71EFF0A46D3
:1055600001461C9806C09FED351B9DED180B04F0FD
:10557000FBFB8DED100B9FED490B53EC102B9DEDBC
:10558000100B51EC100BFAF7AFFF9FED301BCDE97C
:1055900014019DED180B04F0E7FB8DED0C0B9FED56
:1055A000410B53EC102B9DED0C0B51EC100BFAF74B
:1055B0009BFF9FED3E1BCDE910019DED180B04F004
:1055C000D3FB8DED080B9FED3B0B53EC102B9DEDAA
:1055D000080B51EC100BFAF787FF9FED381BCDE954
:1055E0000C019DED180B04F0BFFB8DED040B9FED3E
:1055F000350B53EC102B9DED040B51EC100BFAF70F
:1056000073FF9FED321BCDE908019DED180B04F0EF
:10561000ABFB8DED000B9FED2F0B53EC102B9DED95
:10562000000B51EC100BFAF75FFF9FED2C1BCDE93F
:10563000040157E03701A38B2E7CAB400000000033
:105640000000F03FD8F9DE0974A7774000000000A1
:10565000000000409BA196C7A5F52D40B8EEC913E8
:10566000D8E4D33F1AA83F61D13A6D3F272C51C5EA
:10567000338DF63EA4A3CD64DF926CBE3A3A5D74DE
:10568000D18BAE4057CC89BEE67150407D75113B41
:1056900089D5D33EB26B8D19A7E6493E26FE059407
:1056A00058FB58404BF57AE00F6A0B4000000000B1
:1056B0000000084019FCF30EA9B7AE3F000000003F
:1056C000000010404936FFA03B6B423F0000000045
:1056D00000001440179FC7A32526C63E0000000007
:1056E000000018409DED180B04F03EFB8DED000B03
:1056F0009FEDFE0B53EC102B9DED000B51EC100BAE
:10570000FAF7F2FECDE902019DED040B53EC102BEC
:105710009DED020B51EC100BFAF73FFECDE90601AF
:105720009DED080B53EC102B9DED060B51EC100B6F
:10573000FAF7D4FECDE90A019DED0C0B53EC102BCA
:105740009DED0A0B51EC100BFAF727FECDE90E0187
:105750009DED100B53EC102B9DED0E0B51EC100B2F
:10576000FAF7BCFECDE912019DED140B53EC102BA2
:105770009DED120B51EC100BFAF70FFE9FEDDD0BB8
:1057800053EC102BCDE916019DED160B51EC100BCF
:10579000FAF7A4FE0A4601461D9806C01FED591BE4
:1057A0009DED180B04F0E0FA8DED100B9FEDD30B7F
:1057B00053EC102B9DED100B51EC100BFAF794FEEF
:1057C0001FED5E1BCDE914019DED180B04F0CCFA22
:1057D0008DED0C0B9FEDCB0B53EC102B9DED0C0BBB
:1057E00051EC100BFAF780FE1FED501BCDE91001B4
:1057F0009DED180B04F0B8FA8DED080B9FEDC30B6F
:1058000053EC102B9DED080B51EC100BFAF76CFECE
:105810001FED561BCDE90C019DED180B04F0A4FA09
:105820008DED040B9FEDBB0B53EC102B9DED040B8A
:1058300051EC100BFAF758FE1FED5C1BCDE9080187
:105840009DED180B04F090FA8DED000B9FEDB30B5E
:1058500053EC102B9DED000B51EC100BFAF744FEAE
:105860001FED621BCDE904019DED180B04F07CFADD
:105870008DED000B9FEDAB0B53EC102B9DED000B52
:1058800051EC100BFAF730FECDE902019DED040B4F
:1058900053EC102B9DED020B51EC100BFAF77DFD34
:1058A000CDE906019DED080B53EC102B9DED060B89
:1058B00051EC100BFAF712FECDE90A019DED0C0B2D
:1058C00053EC102B9DED0A0B51EC100BFAF765FD14
:1058D000CDE90E019DED100B53EC102B9DED0E0B41
:1058E00051EC100BFAF7FAFDCDE912019DED140B06
:1058F00053EC102B9DED120B51EC100BFAF74DFDF4
:105900009FED8A0B53EC102BCDE916019DED160B84
:1059100051EC100BFAF7E2FD0A4601461E9806C04C
:105920001FEDBA1B9DED180B04F01EFA8DED100B48
:105930009FED800B53EC102B9DED100B51EC100BD9
:10594000FAF7D2FD1FEDBF1BCDE914019DED180B39
:1059500004F00AFA8DED0C0B9FED780B53EC102B35
:105960009DED0C0B51EC100BFAF7BEFD1FEDB11BBA
:10597000CDE910019DED180B04F0F6F98DED080B43
:105980009FED700B53EC102B9DED080B51EC100BA1
:10599000FAF7AAFD1FEDB71BCDE90C019DED180B21
:1059A00004F0E2F98DED040B9FED680B53EC102B26
:1059B0009DED040B51EC100BFAF796FD1FEDBD1B8E
:1059C000CDE908019DED180B04F0CEF98DED000B2B
:1059D0009FED600B53EC102B9DED000B51EC100B69
:1059E000FAF782FD1FEDC31BCDE904019DED180BF5
:1059F00004F0BAF98DED000B9FED580B53EC102B12
:105A00009DED000B51EC100BFAF76EFDCDE9020194
:105A10009DED040B53EC102B9DED020B51EC100B84
:105A2000FAF7BBFCCDE906019DED080B53EC102BFA
:105A30009DED060B51EC100BFAF750FDCDE90A0174
:105A40009DED0C0B53EC102B9DED0A0B51EC100B44
:105A5000FAF7A3FCCDE90E019DED100B53EC102BD2
:105A60009DED0E0B51EC100BFAF738FDCDE912014C
:105A70009DED140B53EC102B9DED120B51EC100B04
:105A8000FAF78BFC9FED370B53EC102BCDE9160189
:105A90009DED160B51EC100BFAF720FD0A4601465E
:105AA0001F9806C013E09FED310B1C9880ED000B92
:105AB0009FED300B1D9880ED000B9FED300B1E9875
:105AC00080ED000B9FED2F0B1F9880ED000B1F98B2
:105AD00090ED000B8DED160B9FED2A0B53EC102B68
